{
  "_format": "hh-sol-artifact-1",
  "contractName": "MernDapp",
  "sourceName": "contracts/MernDapp.sol",
  "abi": [
    {
      "inputs": [],
      "stateMutability": "nonpayable",
      "type": "constructor"
    },
    {
      "inputs": [],
      "name": "customersSelfOrderRecord",
      "outputs": [
        {
          "components": [
            {
              "internalType": "string",
              "name": "customerName",
              "type": "string"
            },
            {
              "internalType": "uint256",
              "name": "amount",
              "type": "uint256"
            },
            {
              "internalType": "address",
              "name": "adr",
              "type": "address"
            },
            {
              "internalType": "uint256",
              "name": "timeStamp",
              "type": "uint256"
            },
            {
              "internalType": "uint256",
              "name": "productID",
              "type": "uint256"
            },
            {
              "internalType": "string",
              "name": "productName",
              "type": "string"
            }
          ],
          "internalType": "struct MernDapp.Customer[]",
          "name": "",
          "type": "tuple[]"
        }
      ],
      "stateMutability": "view",
      "type": "function"
    },
    {
      "inputs": [],
      "name": "getAccountBalance",
      "outputs": [
        {
          "internalType": "uint256",
          "name": "",
          "type": "uint256"
        }
      ],
      "stateMutability": "view",
      "type": "function"
    },
    {
      "inputs": [],
      "name": "getCustomersDetails",
      "outputs": [
        {
          "components": [
            {
              "internalType": "string",
              "name": "customerName",
              "type": "string"
            },
            {
              "internalType": "uint256",
              "name": "amount",
              "type": "uint256"
            },
            {
              "internalType": "address",
              "name": "adr",
              "type": "address"
            },
            {
              "internalType": "uint256",
              "name": "timeStamp",
              "type": "uint256"
            },
            {
              "internalType": "uint256",
              "name": "productID",
              "type": "uint256"
            },
            {
              "internalType": "string",
              "name": "productName",
              "type": "string"
            }
          ],
          "internalType": "struct MernDapp.Customer[]",
          "name": "",
          "type": "tuple[]"
        }
      ],
      "stateMutability": "view",
      "type": "function"
    },
    {
      "inputs": [],
      "name": "getTotalGatheredAmount",
      "outputs": [
        {
          "internalType": "uint256",
          "name": "",
          "type": "uint256"
        }
      ],
      "stateMutability": "view",
      "type": "function"
    },
    {
      "inputs": [],
      "name": "getTotalOrder",
      "outputs": [
        {
          "internalType": "uint256",
          "name": "",
          "type": "uint256"
        }
      ],
      "stateMutability": "view",
      "type": "function"
    },
    {
      "inputs": [
        {
          "internalType": "address",
          "name": "_customer",
          "type": "address"
        }
      ],
      "name": "ordersByAddress",
      "outputs": [
        {
          "components": [
            {
              "internalType": "string",
              "name": "customerName",
              "type": "string"
            },
            {
              "internalType": "uint256",
              "name": "amount",
              "type": "uint256"
            },
            {
              "internalType": "address",
              "name": "adr",
              "type": "address"
            },
            {
              "internalType": "uint256",
              "name": "timeStamp",
              "type": "uint256"
            },
            {
              "internalType": "uint256",
              "name": "productID",
              "type": "uint256"
            },
            {
              "internalType": "string",
              "name": "productName",
              "type": "string"
            }
          ],
          "internalType": "struct MernDapp.Customer[]",
          "name": "",
          "type": "tuple[]"
        }
      ],
      "stateMutability": "view",
      "type": "function"
    },
    {
      "inputs": [
        {
          "internalType": "uint256",
          "name": "_productID",
          "type": "uint256"
        },
        {
          "internalType": "string",
          "name": "_customerName",
          "type": "string"
        },
        {
          "internalType": "string",
          "name": "_productName",
          "type": "string"
        }
      ],
      "name": "pay",
      "outputs": [],
      "stateMutability": "payable",
      "type": "function"
    },
    {
      "inputs": [
        {
          "internalType": "address payable",
          "name": "reciever",
          "type": "address"
        }
      ],
      "name": "transferAmount",
      "outputs": [],
      "stateMutability": "payable",
      "type": "function"
    }
  ],
  "bytecode": "0x60806040526000600155600060025534801561001a57600080fd5b50336000806101000a81548173ffffffffffffffffffffffffffffffffffffffff021916908373ffffffffffffffffffffffffffffffffffffffff1602179055506118d38061006a6000396000f3fe60806040526004361061007b5760003560e01c80639717552f1161004e5780639717552f1461011d578063ab5fbcc614610139578063b564b73a14610164578063dad1d4c1146101a15761007b565b806327013152146100805780636896fabf146100ab578063691d72b3146100d65780638880e04d146100f2575b600080fd5b34801561008c57600080fd5b506100956101cc565b6040516100a2919061105a565b60405180910390f35b3480156100b757600080fd5b506100c0610451565b6040516100cd919061108b565b60405180910390f35b6100f060048036038101906100eb919061121b565b610470565b005b3480156100fe57600080fd5b50610107610724565b604051610114919061108b565b60405180910390f35b610137600480360381019061013291906112e4565b61072e565b005b34801561014557600080fd5b5061014e610806565b60405161015b919061105a565b60405180910390f35b34801561017057600080fd5b5061018b6004803603810190610186919061133d565b610ae6565b604051610198919061105a565b60405180910390f35b3480156101ad57600080fd5b506101b6610dc8565b6040516101c3919061108b565b60405180910390f35b606060008054906101000a900473ffffffffffffffffffffffffffffffffffffffff1673ffffffffffffffffffffffffffffffffffffffff163373ffffffffffffffffffffffffffffffffffffffff161461025c576040517f08c379a0000000000000000000000000000000000000000000000000000000008152600401610253906113c7565b60405180910390fd5b6004805480602002602001604051908101604052809291908181526020016000905b8282101561044857838290600052602060002090600602016040518060c00160405290816000820180546102b190611416565b80601f01602080910402602001604051908101604052809291908181526020018280546102dd90611416565b801561032a5780601f106102ff5761010080835404028352916020019161032a565b820191906000526020600020905b81548152906001019060200180831161030d57829003601f168201915b50505050508152602001600182015481526020016002820160009054906101000a900473ffffffffffffffffffffffffffffffffffffffff1673ffffffffffffffffffffffffffffffffffffffff1673ffffffffffffffffffffffffffffffffffffffff16815260200160038201548152602001600482015481526020016005820180546103b790611416565b80601f01602080910402602001604051908101604052809291908181526020018280546103e390611416565b80156104305780601f1061040557610100808354040283529160200191610430565b820191906000526020600020905b81548152906001019060200180831161041357829003601f168201915b5050505050815250508152602001906001019061027e565b50505050905090565b60003373ffffffffffffffffffffffffffffffffffffffff1631905090565b60008054906101000a900473ffffffffffffffffffffffffffffffffffffffff1673ffffffffffffffffffffffffffffffffffffffff166108fc479081150290604051600060405180830381858888f193505050501580156104d6573d6000803e3d6000fd5b5060046040518060c001604052808481526020013481526020013373ffffffffffffffffffffffffffffffffffffffff168152602001428152602001858152602001838152509080600181540180825580915050600190039060005260206000209060060201600090919091909150600082015181600001908161055a91906115f3565b506020820151816001015560408201518160020160006101000a81548173ffffffffffffffffffffffffffffffffffffffff021916908373ffffffffffffffffffffffffffffffffffffffff160217905550606082015181600301556080820151816004015560a08201518160050190816105d591906115f3565b5050506004600154815481106105ee576105ed6116c5565b5b9060005260206000209060060201600360003373ffffffffffffffffffffffffffffffffffffffff1673ffffffffffffffffffffffffffffffffffffffff1681526020019081526020016000206000820181600001908161064f919061170a565b50600182015481600101556002820160009054906101000a900473ffffffffffffffffffffffffffffffffffffffff168160020160006101000a81548173ffffffffffffffffffffffffffffffffffffffff021916908373ffffffffffffffffffffffffffffffffffffffff1602179055506003820154816003015560048201548160040155600582018160050190816106e9919061170a565b5090505060018060008282546106ff9190611821565b9250508190555034600260008282546107189190611821565b92505081905550505050565b6000600254905090565b60008054906101000a900473ffffffffffffffffffffffffffffffffffffffff1673ffffffffffffffffffffffffffffffffffffffff163373ffffffffffffffffffffffffffffffffffffffff16146107bc576040517f08c379a00000000000000000000000000000000000000000000000000000000081526004016107b3906113c7565b60405180910390fd5b8073ffffffffffffffffffffffffffffffffffffffff166108fc349081150290604051600060405180830381858888f19350505050158015610802573d6000803e3d6000fd5b5050565b6060600060015467ffffffffffffffff811115610826576108256110f0565b5b60405190808252806020026020018201604052801561085f57816020015b61084c610dd2565b8152602001906001900390816108445790505b50905060005b600154811015610ade5760048181548110610883576108826116c5565b5b906000526020600020906006020160020160009054906101000a900473ffffffffffffffffffffffffffffffffffffffff1673ffffffffffffffffffffffffffffffffffffffff163373ffffffffffffffffffffffffffffffffffffffff1603610acb57600481815481106108fb576108fa6116c5565b5b90600052602060002090600602016040518060c001604052908160008201805461092490611416565b80601f016020809104026020016040519081016040528092919081815260200182805461095090611416565b801561099d5780601f106109725761010080835404028352916020019161099d565b820191906000526020600020905b81548152906001019060200180831161098057829003601f168201915b50505050508152602001600182015481526020016002820160009054906101000a900473ffffffffffffffffffffffffffffffffffffffff1673ffffffffffffffffffffffffffffffffffffffff1673ffffffffffffffffffffffffffffffffffffffff1681526020016003820154815260200160048201548152602001600582018054610a2a90611416565b80601f0160208091040260200160405190810160405280929190818152602001828054610a5690611416565b8015610aa35780601f10610a7857610100808354040283529160200191610aa3565b820191906000526020600020905b815481529060010190602001808311610a8657829003601f168201915b505050505081525050828281518110610abf57610abe6116c5565b5b60200260200101819052505b8080610ad690611855565b915050610865565b508091505090565b6060600060015467ffffffffffffffff811115610b0657610b056110f0565b5b604051908082528060200260200182016040528015610b3f57816020015b610b2c610dd2565b815260200190600190039081610b245790505b50905060005b600154811015610dbe5760048181548110610b6357610b626116c5565b5b906000526020600020906006020160020160009054906101000a900473ffffffffffffffffffffffffffffffffffffffff1673ffffffffffffffffffffffffffffffffffffffff168473ffffffffffffffffffffffffffffffffffffffff1603610dab5760048181548110610bdb57610bda6116c5565b5b90600052602060002090600602016040518060c0016040529081600082018054610c0490611416565b80601f0160208091040260200160405190810160405280929190818152602001828054610c3090611416565b8015610c7d5780601f10610c5257610100808354040283529160200191610c7d565b820191906000526020600020905b815481529060010190602001808311610c6057829003601f168201915b50505050508152602001600182015481526020016002820160009054906101000a900473ffffffffffffffffffffffffffffffffffffffff1673ffffffffffffffffffffffffffffffffffffffff1673ffffffffffffffffffffffffffffffffffffffff1681526020016003820154815260200160048201548152602001600582018054610d0a90611416565b80601f0160208091040260200160405190810160405280929190818152602001828054610d3690611416565b8015610d835780601f10610d5857610100808354040283529160200191610d83565b820191906000526020600020905b815481529060010190602001808311610d6657829003601f168201915b505050505081525050828281518110610d9f57610d9e6116c5565b5b60200260200101819052505b8080610db690611855565b915050610b45565b5080915050919050565b6000600154905090565b6040518060c001604052806060815260200160008152602001600073ffffffffffffffffffffffffffffffffffffffff1681526020016000815260200160008152602001606081525090565b600081519050919050565b600082825260208201905092915050565b6000819050602082019050919050565b600081519050919050565b600082825260208201905092915050565b60005b83811015610e84578082015181840152602081019050610e69565b60008484015250505050565b6000601f19601f8301169050919050565b6000610eac82610e4a565b610eb68185610e55565b9350610ec6818560208601610e66565b610ecf81610e90565b840191505092915050565b6000819050919050565b610eed81610eda565b82525050565b600073ffffffffffffffffffffffffffffffffffffffff82169050919050565b6000610f1e82610ef3565b9050919050565b610f2e81610f13565b82525050565b600060c0830160008301518482036000860152610f518282610ea1565b9150506020830151610f666020860182610ee4565b506040830151610f796040860182610f25565b506060830151610f8c6060860182610ee4565b506080830151610f9f6080860182610ee4565b5060a083015184820360a0860152610fb78282610ea1565b9150508091505092915050565b6000610fd08383610f34565b905092915050565b6000602082019050919050565b6000610ff082610e1e565b610ffa8185610e29565b93508360208202850161100c85610e3a565b8060005b8581101561104857848403895281516110298582610fc4565b945061103483610fd8565b925060208a01995050600181019050611010565b50829750879550505050505092915050565b600060208201905081810360008301526110748184610fe5565b905092915050565b61108581610eda565b82525050565b60006020820190506110a0600083018461107c565b92915050565b6000604051905090565b600080fd5b600080fd5b6110c381610eda565b81146110ce57600080fd5b50565b6000813590506110e0816110ba565b92915050565b600080fd5b600080fd5b7f4e487b7100000000000000000000000000000000000000000000000000000000600052604160045260246000fd5b61112882610e90565b810181811067ffffffffffffffff82111715611147576111466110f0565b5b80604052505050565b600061115a6110a6565b9050611166828261111f565b919050565b600067ffffffffffffffff821115611186576111856110f0565b5b61118f82610e90565b9050602081019050919050565b82818337600083830152505050565b60006111be6111b98461116b565b611150565b9050828152602081018484840111156111da576111d96110eb565b5b6111e584828561119c565b509392505050565b600082601f830112611202576112016110e6565b5b81356112128482602086016111ab565b91505092915050565b600080600060608486031215611234576112336110b0565b5b6000611242868287016110d1565b935050602084013567ffffffffffffffff811115611263576112626110b5565b5b61126f868287016111ed565b925050604084013567ffffffffffffffff8111156112905761128f6110b5565b5b61129c868287016111ed565b9150509250925092565b60006112b182610ef3565b9050919050565b6112c1816112a6565b81146112cc57600080fd5b50565b6000813590506112de816112b8565b92915050565b6000602082840312156112fa576112f96110b0565b5b6000611308848285016112cf565b91505092915050565b61131a81610f13565b811461132557600080fd5b50565b60008135905061133781611311565b92915050565b600060208284031215611353576113526110b0565b5b600061136184828501611328565b91505092915050565b600082825260208201905092915050565b7f57726f6e6720506572736f6e2043616c6c696e67000000000000000000000000600082015250565b60006113b160148361136a565b91506113bc8261137b565b602082019050919050565b600060208201905081810360008301526113e0816113a4565b9050919050565b7f4e487b7100000000000000000000000000000000000000000000000000000000600052602260045260246000fd5b6000600282049050600182168061142e57607f821691505b602082108103611441576114406113e7565b5b50919050565b60008190508160005260206000209050919050565b60006020601f8301049050919050565b600082821b905092915050565b6000600883026114a97fffffffffffffffffffffffffffffffffffffffffffffffffffffffffffffffff8261146c565b6114b3868361146c565b95508019841693508086168417925050509392505050565b6000819050919050565b60006114f06114eb6114e684610eda565b6114cb565b610eda565b9050919050565b6000819050919050565b61150a836114d5565b61151e611516826114f7565b848454611479565b825550505050565b600090565b611533611526565b61153e818484611501565b505050565b5b818110156115625761155760008261152b565b600181019050611544565b5050565b601f8211156115a75761157881611447565b6115818461145c565b81016020851015611590578190505b6115a461159c8561145c565b830182611543565b50505b505050565b600082821c905092915050565b60006115ca600019846008026115ac565b1980831691505092915050565b60006115e383836115b9565b9150826002028217905092915050565b6115fc82610e4a565b67ffffffffffffffff811115611615576116146110f0565b5b61161f8254611416565b61162a828285611566565b600060209050601f83116001811461165d576000841561164b578287015190505b61165585826115d7565b8655506116bd565b601f19841661166b86611447565b60005b828110156116935784890151825560018201915060208501945060208101905061166e565b868310156116b057848901516116ac601f8916826115b9565b8355505b6001600288020188555050505b505050505050565b7f4e487b7100000000000000000000000000000000000000000000000000000000600052603260045260246000fd5b60008154905061170381611416565b9050919050565b8181036117185750506117f0565b611721826116f4565b67ffffffffffffffff81111561173a576117396110f0565b5b6117448254611416565b61174f828285611566565b6000601f83116001811461177e576000841561176c578287015490505b61177685826115d7565b8655506117e9565b601f19841661178c87611447565b965061179786611447565b60005b828110156117bf5784890154825560018201915060018501945060208101905061179a565b868310156117dc57848901546117d8601f8916826115b9565b8355505b6001600288020188555050505b5050505050505b565b7f4e487b7100000000000000000000000000000000000000000000000000000000600052601160045260246000fd5b600061182c82610eda565b915061183783610eda565b925082820190508082111561184f5761184e6117f2565b5b92915050565b600061186082610eda565b91507fffffffffffffffffffffffffffffffffffffffffffffffffffffffffffffffff8203611892576118916117f2565b5b60018201905091905056fea2646970667358221220f09ddb1982586fb71939a513f8ce173b5ab9479a07f5116403ed1e6c029f505764736f6c63430008130033",
  "linkReferences": {},
  "deployedLinkReferences": {}
}